:020000040800F2
:10000000000002207D3F00086539000867390008BC
:10001000693900086B3900086D39000800000000DC
:100020000000000000000000000000006F39000820
:1000300071390008000000007339000875390008A4
:10004000CD3F0008CD3F0008CD3F0008CD3F000860
:10005000CD3F0008CD3F0008CD3F0008CD3F000850
:10006000CD3F0008CD3F0008CD3F00088139000892
:10007000CD3F0008CD3F0008CD3F0008CD3F000830
:10008000CD3F0008CD3F0008CD3F0008CD3F000820
:10009000CD3F0008CD3F0008CD3F0008CD3F000810
:1000A000CD3F0008CD3F0008CD3F0008CD3F000800
:1000B000CD3F0008CD3F0008CD3F0008CD3F0008F0
:1000C000CD3F0008CD3F0008CD3F0008CD3F0008E0
:1000D000CD3F0008CD3F0008CD3F0008CD3F0008D0
:1000E000CD3F0008CD3F0008CD3F0008CD3F0008C0
:1000F000CD3F0008CD3F0008CD3F0008CD3F0008B0
:10010000CD3F0008CD3F0008CD3F0008CD3F00089F
:10011000CD3F0008CD3F0008CD3F0008CD3F00088F
:10012000CD3F0008CD3F0008CD3F0008CD3F00087F
:10013000CD3F0008CD3F0008CD3F0008CD3F00086F
:10014000CD3F0008CD3F0008CD3F000891390008A1
:10015000CD3F0008CD3F0008CD3F0008CD3F00084F
:10016000CD3F0008CD3F0008CD3F0008CD3F00083F
:10017000CD3F0008CD3F0008CD3F00080000000043
:08018000CD3F0008CD3F00084F
:1001880010B5054C237833B9044B13B10448AFF3C9
:1001980000800123237010BD300300200000000000
:1001A8003C42000808B5034B1BB103490348AFF3B1
:1001B800008008BD00000000340300203C42000815
:1001C80053B94AB9002908BF00281CBF4FF0FF31B6
:1001D8004FF0FF3000F072B9ADF1080C6DE904CEB4
:1001E80000F006F8DDF804E0DDE9022304B070470A
:1001F8002DE9F047089E04468846002B4BD18A42D9
:10020800154667D9B2FA82F24AB1C2F1200701FA5B
:1002180002F320FA07F7954047EA030894404FEAAB
:10022800154E230CB8FBFEF71FFA85FC0EFB17884A
:1002380043EA084307FB0CF1994209D9EB1807F187
:10024800FF3080F01B81994240F21881023F2B4415
:100258005B1AA4B2B3FBFEF00EFB103344EA03446E
:1002680000FB0CFCA44509D92C1900F1FF3380F0E0
:100278000781A44540F2048102382C4440EA074033
:10028800A4EB0C0400271EB1D4400023C6E90043A8
:100298003946BDE8F0878B4209D9002E00F0EB8083
:1002A8000027C6E9000138463946BDE8F087B3FAA9
:1002B80083F7002F47D18B4202D3824200F2FA80A3
:1002C800841A61EB030301209846002EE0D0C6E9AA
:1002D8000048DDE702B9FFDEB2FA82F2002A40F0F8
:1002E8008F80491B4FEA154E1FFA85F80127B1FB8D
:1002F800FEFC230C0EFB1C1143EA014308FB0CF126
:10030800994207D9EB180CF1FF3002D2994200F25A
:10031800CD808446591AA3B2B1FBFEF00EFB10142F
:1003280043EA044408FB00F8A04507D92C1900F15A
:10033800FF3302D2A04500F2B6801846A4EB0804A9
:1003480040EA0C409FE7C7F1200CBB4022FA0CFEA4
:100358004EEA030E01FA07F420FA0CF521FA0CF321
:100368004FEA1E482543B3FBF8F92C0C08FB193358
:100378001FFA8EFA44EA034309FB0AF49C4202FA84
:1003880007F200FA07F10BD91EEB030309F1FF305E
:1003980080F087809C4240F28480A9F1020973446E
:1003A8001B1BADB2B3FBF8F008FB103345EA03445E
:1003B80000FB0AFAA24508D91EEB040400F1FF333A
:1003C8006BD2A24569D90238744440EA0940A0FBBF
:1003D8000289A4EB0A044C45C2464B4654D351D07B
:1003E800002E69D0B1EB0A0564EB030404FA0CFC97
:1003F800FD40FC404CEA0505C6E90054002747E7E4
:10040800C2F1200320FA03F7954001FA02F021FA1D
:1004180003F34FEA154E3843010CB3FBFEF71FFAFE
:1004280085F80EFB173341EA034107FB08F38B42BB
:1004380004FA02F407D9691807F1FF3C2FD28B425E
:100448002DD9023F2944CB1A81B2B3FBFEF00EFB33
:10045800103341EA034100FB08F38B4207D96918BE
:1004680000F1FF3C17D28B4215D902382944C91A2A
:1004780040EA07473BE73746304609E70746E7E6DD
:100488001846FBE64145ABD2B8EB020A69EB0E020F
:1004980001381346A4E76046E9E7184695E767463A
:1004A800D1E781467CE702382C4447E7ACF1020CDF
:1004B8002B442FE7384608E73746E9E6704700BF80
:1004C80010B504460E4B18784FF47A73B3FBF0F36B
:1004D8000C4A1068B0FBF3F000F0A8F868B90F2CCC
:1004E80001D901200AE0002221464FF0FF3000F038
:1004F8005DF8034B5C60002000E0012010BD00BFE8
:10050800000000201801002008B50B4B1A6842F4BF
:1005180000721A601A6842F480621A601A6842F41B
:1005280080721A60032000F02FF80020FFF7C8FF40
:1005380003F0CAF9002008BD003C0240034A1168D4
:10054800034B1B780B441360704700BF5C0300200B
:1005580000000020014B1868704700BF5C030020B2
:1005680038B50446FFF7F6FF0546B4F1FF3F02D061
:10057800044B1B781C44FFF7EDFF401BA042FAD345
:1005880038BD00BF00000020074AD36823F4E063A9
:100598001B041B0C000200F4E060184340F0BF602D
:1005A80040F40030D060704700ED00E030B4174BE5
:1005B800DB68C3F30223C3F10704042C28BF042417
:1005C8001D1D062D18D9033B4FF0FF3505FA04F41D
:1005D80021EA0401994005FA03F322EA03031943C7
:1005E80000280BDB0901C9B200F1604000F5614049
:1005F80080F8001330BC70470023E5E700F00F00D7
:100608000901C9B2024B1954F4E700BF00ED00E03C
:1006180014ED00E000F01F02400901239340024A54
:1006280042F82030704700BF00E100E00138B0F127
:10063800807F0AD2064B5860064AF02182F82310C0
:100648000020986007221A6070470120704700BF99
:1006580010E000E000ED00E0042805D0054A13682A
:1006680023F0040313607047024A136843F004033D
:100678001360704710E000E0704708B5FFF7FCFF13
:1006880008BD30B405682C6824F480242C60046804
:1006980063608368402B05D0036899600368DA605B
:1006A80030BC704703689A600368D960F8E70000B7
:1006B8000268D3B2103B0B49A1FB03131B090A497B
:1006C800C95CC165032B06D822F47F7222F00302AD
:1006D8008265806D704722F47F7222F00302043233
:1006E8008265F6E7ABAAAAAA54420008836A82691F
:1006F80092B9012B0AD01BB1022B01D00020704700
:10070800C36A13F0807F2CD100207047C36AB3F10D
:10071800C07F28D000207047B2F5005F05D0022BBB
:1007280029D9032B15D000207047032B03D8DFE805
:1007380003F01C041C0A00207047C36A13F0807F72
:1007480015D100207047C36AB3F1C07F11D00020D3
:100758007047C36A13F0807F01D0012070470020E2
:100768007047012070470120704701207047012021
:1007780070470120704701207047000070B504469B
:10078800FFF7E8FE002C5BD00546002384F83430E0
:10079800022384F835302268136823F001031360BC
:1007A80023681A6812F0010F0AD0FFF7D3FE401B26
:1007B8000528F5D920236365032084F8350070BD2A
:1007C8001A68204810406168A2680A43E1680A4331
:1007D80021690A4361690A43A1690A43E1690A4335
:1007E800216A0A430243616A04291ED01A602668F6
:1007F800756925F00705636A1D43042B07D1A36AB1
:100808001D43E36A1BB12046FFF770FF90B975617D
:100818002046FFF74DFFE26D3F23934083600020A1
:100828006065012384F83530C9E7E16A206B01432C
:100838000A43DBE740236365012084F83500BEE7FF
:100848000120BCE73F8010F038B5856D90F8344042
:10085800012C31D0012480F8344090F83540E4B2BE
:10086800012C04D0002380F83430022038BD04461F
:10087800022084F83500002060652046FFF701FF5C
:10088800E26D3F239340AB602268136843F0160380
:1008980013602268536943F080035361236C23B1CA
:1008A8002268136843F0080313602268136843F052
:1008B800010313600020D9E70220D7E7F0B583B021
:1008C800044600230193724B1D68724BA3FB053548
:1008D800AD0A876D3E68C26D08239340334210D03D
:1008E80003681A6812F0040F0BD01A6822F0040289
:1008F8001A60C26D08239340BB60436D43F0010347
:100908004365E26D01239340334209D0226852695E
:1009180012F0800F04D0BB60636D43F0020363657F
:10092800E26D04239340334209D02268126812F022
:10093800020F04D0BB60636D43F004036365E26D8E
:1009480010239340334224D02268126812F0080F13
:100958001FD0BB6023681A6812F4802F0DD01B6863
:1009680013F4002F04D1236C9BB12046984710E064
:10097800A36C73B1204698470BE01A6812F4807F85
:1009880003D11A6822F008021A60236C0BB12046C2
:100998009847E26D20239340334255D0226812686D
:1009A80012F0100F50D0BB6094F83530DBB2052B35
:1009B8000ED023681A6812F4802F33D01B6813F402
:1009C800002F2AD1636C002B3ED0204698473BE08D
:1009D8002268136823F0160313602268536923F012
:1009E80080035361236CA3B12268136823F00803C2
:1009F8001360E26D3F239340BB60002384F83430DA
:100A0800012384F83530236D002B3FD020469847CA
:100A18003CE0A36C002BE7D1EBE7E36BA3B12046E6
:100A2800984711E01A6812F4807F09D11A6822F0F9
:100A380010021A60002384F83430012384F835301A
:100A4800E36B0BB120469847636DFBB1636D13F000
:100A5800010F17D0052384F835302268136823F076
:100A680001031360019B01330193AB4204D823684F
:100A78001B6813F0010FF5D1002384F834300123EB
:100A880084F83530E36C0BB12046984703B0F0BDCD
:100A980018010020B5814E1B00230F2B00F2D780D0
:100AA800F0B482B039E0072200E00022B2403A43B5
:100AB8000234674E46F82420664A1468EA4302EA7C
:100AC80004064F6817F4803F01D045EA0406614CDC
:100AD8002660646802EA04064F6817F4003F01D0F4
:100AE80045EA04065B4C6660A46802EA04064F689F
:100AF80017F4801F01D045EA0406564CA660E46846
:100B080022404E6816F4001F01D045EA0402514CF9
:100B1800E26001330F2B00F2978001229A400C68A3
:100B280004EA0205AA42F4D14C68022C01D0122C26
:100B380010D1DE08083650F826C003F00704A700D5
:100B48000F24BC402CEA040C0C69BC4044EA0C0499
:100B580040F8264004685F000326BE40F64306EAD4
:100B6800040C4C6804F00304BC4044EA0C04046020
:100B78004C6804F1FF3CBCF1010F03D9112C01D0E2
:100B8800122C10D1846806EA040CCC68BC4044EAF4
:100B98000C048460446824EA02024C68C4F300141C
:100BA8009C4014434460C26816408A68BA40324385
:100BB800C2604A6812F0805FABD000220192264AD8
:100BC800546C44F480445464526C02F480420192A0
:100BD800019A9C08A61C1E4A52F8267003F00302CC
:100BE80096000F22B24027EA02071C4A90423FF4BF
:100BF8005CAF02F5806290421AD002F580629042A2
:100C080018D002F58062904216D002F580629042B8
:100C180014D002F58062904212D002F580629042B0
:100C280010D002F5806290423FF43DAF08223DE7C4
:100C380001223BE7022239E7032237E7042235E79E
:100C4800052233E7062231E702B0F0BC704770474F
:100C580000380140003C01400038024000000240DA
:100C680012B9090481617047816170472DE9F04329
:100C780083B007460D46D0F80080CA00521A930088
:100C88000344DE6C1A6DB61A1B6C9E4200D91E46D0
:100C980006F103094FEA990915E006F103094FEA3D
:100CA8009909EB005B1B9C003C44616C3B7C009306
:100CB800B3B2EAB2404601F05FFE636C334463644A
:100CC800236D33442365414608EB451303F5106350
:100CD8009B699BB24B4512D9EA00521B93003B44D7
:100CE8001A6DDB6C9A420AD24BB19E1AC5EBC5024B
:100CF80093003B441B6C9E42CFD91E46CDE73EB9BC
:100D08000123AB40D1F8345825EA0305C1F834581B
:100D1800002003B0BDE8F08300286BD0F0B58BB09D
:100D28000446032380F8B93302F04EFF206801F02F
:100D38006EFA254655F8107B6E460FCD0FC60FCDBF
:100D48000FC695E8030086E80300231D0ECB38463E
:100D580001F019FA0021206801F05FFA002210E082
:100D6800D100891A8B002344012183F8391083F8B4
:100D78003820DA87002183F83B1019645964D96454
:100D880001320E2AECD9002218E0D100891A8B0012
:100D98002344002183F8F91183F8F821DA8783F8CE
:100DA800FB11C3F80012C3F80412C3F80C1223682D
:100DB80002F1400003EB8003596001320E2AE4D9A6
:100DC800254655F8107B6E460FCD0FC60FCD0FC6C2
:100DD80095E8030086E80300231D0ECB384601F092
:100DE80033FA012384F8B933206801F070FE00203B
:100DF8000BB0F0BD0120704790F8B833012B0ED02E
:100E080010B50446012380F8B833006801F053FE9A
:100E1800206801F0F6F9002084F8B80310BD02201C
:100E2800704700002DE9F04704460568284601F0A0
:100E380089FE08B1BDE8F0870646206801F053FE38
:100E48000028F7D0206801F04EFE10F0020F04D001
:100E58002268536903F002035361206801F043FEDE
:100E680010F4002F75D13746206801F03CFE10F4CD
:100E7800802F40F0D280206801F035FE0028C0F2B3
:100E88003E81206801F02FFE10F4006F0AD0D5F8DB
:100E9800083813F0010F40F041812268536903F4C8
:100EA80000635361206801F01EFE10F4805F40F07B
:100EB8003981206801F017FE10F4005F40F082814C
:100EC800206801F010FE10F0100F14D0226893690A
:100ED80023F0100393612E6A06F00F08C6F343430C
:100EE800022B00F00382062B00F02182226893690E
:100EF80043F010039361206801F0F5FD10F0080F2E
:100F080040F02982206801F0EEFD10F4801F40F0C7
:100F18002B82206801F0E7FD10F4001F40F02E82BC
:100F2800206801F0E0FD10F0804F40F03182206829
:100F380001F0D9FD10F0040F3FF47CAF23685D6821
:100F480015F0040F40F02D82226853682B4353603C
:100F580070E7206801F0CBFD8046374621E0F900B4
:100F6800C91B8A002244D2F800121B69C3F312037A
:100F7800C91AC2F81012D2F80012D2F804320B447F
:100F8800C2F8043228E019F0080F3DD119F0100F0B
:100F980004D005EB47131022C3F8082B01374FEA9A
:100FA8005808B8F1000F3FF45FAF18F0010FF5D003
:100FB8005FFA87FA5146206801F0A9FD814610F0D2
:100FC800010FE0D005EB47130122C3F8082B03F506
:100FD80030632269012AC2D05146204602F03AFE07
:100FE8002369012BCFD1002FCDD1C7EBC7029300C6
:100FF8002344D3F80C32002BC5D104F56F720121BC
:10100800206801F0BFFDBEE7204602F01BFE05EB9D
:1010180047130822C3F8082BB8E7206801F06FFDD2
:10102800804637462EE0FA00D21B93002344196C01
:101038005A6C0A445A6446E019F0080F04D005EBCC
:1010480047130822C3F8082919F0100F04D005EB3C
:1010580047131022C3F8082919F0400F04D005EBF4
:1010680047134022C3F8082919F0020F04D005EBF2
:1010780047130222C3F8082919F0800F3AD1013723
:101088004FEA5808B8F1000F3FF4F5AE18F0010F19
:10109800F5D05FFA87FA5146206801F041FD814694
:1010A80010F0010FC8D0012202FA07F0D5F8343841
:1010B80023EA0003C5F8343805EB4713C3F80829B9
:1010C80023699342AFD05146204602F0CFFD2369F1
:1010D800012BB1D1002FAFD1C7EBC7029300234436
:1010E800DB6C002BA8D104F56F720121206801F098
:1010F80049FDA1E739462046FFF7B8FDBFE7D5F817
:10110800043823F00103C5F80438204602F0E8FD4E
:101118002268536903F000435361B2E6204602F0A7
:10112800C7FDBAE6A94605F50068D8F8043023F0EB
:101138000103C8F804301021206801F02DF907E0F8
:1011480009EB4613FF22C3F80829C3F8082B013618
:101158006368B342F4D84FF0FF33C8F81830D8F8B2
:101168001C3043F00113C8F81C30236BEBB1D8F8DE
:10117800843043F00B03C8F88430D8F8443043F087
:101188000B03C8F84430D5F8003823F4FE63C5F8DB
:10119800003804F56F72217C206801F0F3FC2268A6
:1011A800536903F48053536183E6D8F8143043F04D
:1011B8000B03C8F81430D8F8103043F00B03C8F804
:1011C8001030E0E7206801F0C1FC2268D36823F4FE
:1011D8007053D360206801F00CF990B90023E360E4
:1011E8004FF4007363612268D36843F41053D360EB
:1011F800204602F04CFD2268536903F40053536102
:101208005EE60323E3604023636100F027FD674B3C
:101218000344674A934205D82268D36843F470535D
:10122800D360E5E7634B0344634A934205D82268D9
:10123800D36843F46053D360DAE7A0F57403A3F5E9
:1012480010535E4A934205D82268D36843F450533A
:10125800D360CDE7A0F18373A3F5E743584A9342DF
:1012680005D82268D36843F44053D360C0E7554B90
:101278000344554A934205D82268D36843F430534F
:10128800D360B5E7514B0344514A934205D82268CD
:10129800D36843F42053D360AAE74E4B03444E4A25
:1012A800934205D82268D36843F41053D3609FE76C
:1012B800A0F1B773A3F55853484A934205D822685A
:1012C800D36843F40053D36092E7454B0344454A3F
:1012D800934205D82268D36843F4E053D36087E784
:1012E8002268D36843F4C053D36081E747F6F073AC
:1012F8001E423FF4FBAD36094FEAC80AAAEB0803C1
:101308004FEA8309A144C6F30A02D9F80412284611
:1013180001F046FBC6F30A06D9F804323344C9F88B
:101328000432D9F810321E44C9F81062DEE50822EA
:1013380004F56F71284601F033FBC6F30A164FEA2D
:10134800C803A3EB08018A002244D2F810321E44D5
:10135800C2F81062CAE5204602F093FC226853697D
:1013680003F008035361CDE5F9B2204602F0C4FC4E
:101378002268536903F480135361CAE5F9B2204621
:1013880002F0B4FC2268536903F400135361C7E503
:10139800204602F0B7FC2268536903F0804353618A
:1013A800C5E5204602F0B4FCCEE500BF405327FF58
:1013B800FF340C00401E1BFF3F420F007F4F1200FE
:1013C8001FD6130060B6E5FE5FE3160000D3CEFE1D
:1013D8003F771B00C05BB3FEBF9121001F7538002B
:1013E800E05459FEDF9C410090F8B833012B0BD034
:1013F80010B50446012380F8B833006801F04BFBB0
:10140800002084F8B80310BD0220704770B54DB2B3
:10141800002D22DB01F07F06C6EBC606B40004F5FA
:10142800FC74044401F07F012170ED0F6570A26027
:10143800E37005B1E180022B17D090F8B833012B87
:1014480016D00546012380F8B8332146006800F01D
:10145800F0FF002085F8B80370BD01F07F06C6EBE9
:10146800C606B40038340444DCE700232371E4E7FB
:101478000220F1E710B54AB2002A1CDB01F07F0414
:10148800C4EBC404A30003F5FC73034401F07F011B
:101498001970D20F5A7090F8B823012A13D0044655
:1014A800012280F8B8231946006801F00BF80020E3
:1014B80084F8B80310BD01F07F04C4EBC404A30092
:1014C80038330344E2E70220F4E770B501F07F0601
:1014D800F500A91B8C0004F5FC740119AD1BAC00C8
:1014E8000444C4F80422C4F80C320023C4F81032AF
:1014F80084F8F93184F8F8610369012B06D066B1E4
:10150800DAB2006801F056F8002070BDC6EBC605D7
:10151800AC000444C4F80822F1E7DAB2006801F02C
:101528007BF9F1E701F00F01C1EBC1018B00184411
:10153800B0F81002704770B501F07F06F500A91BDE
:101548008C0038340119AD1BAC0004446264E364B8
:1015580000232365012384F8393084F8386003694F
:10156800012B06D05EB1DAB2006801F023F8002042
:1015780070BDC6EBC605AC000444A264F2E7DAB25B
:10158800006801F049F9F2E738B54AB2002A1DDBD4
:10159800C1EBC104A30003F5FC73034401249C7050
:1015A80001F07F041C70D20F5A7090F8B823012AFA
:1015B8001BD00546012280F8B8231946006801F0BF
:1015C80003FA5CB1002085F8B80338BD01F07F0448
:1015D800C4EBC404A30038330344DFE705F56F7296
:1015E800297C286801F0CEFAECE70220EDE710B577
:1015F8004AB2002A1CDBC1EBC104A30003F5FC734B
:10160800034400249C7001F07F011970D20F5A70B6
:1016180090F8B823012A13D00446012280F8B82391
:101628001946006801F002FA002084F8B80310BDDA
:1016380001F07F04C4EBC404A30038330344E0E79B
:101648000220F4E730B40468606A29B10D46A36A41
:1016580000EB134000230CE040EA0240A06212E0D5
:1016680003F1400104EB8101496800EB11400133AB
:10167800DBB2691E8B42F3DB40EA024005F13F0111
:1016880004EB81014860002030BC70470368596250
:1016980000207047002800F0BB8170B582B0044676
:1016A800036813F0010F3BD0A74B9B6803F00C03B2
:1016B800042B2CD0A44B9B6803F00C03082B21D0DF
:1016C8006368B3F5803F4FD0B3F5A02F52D09E4B3F
:1016D8001A6822F480321A601A6822F480221A608A
:1016E8006368002B50D0FEF735FF0546964B1B6804
:1016F80013F4003F14D1FEF72DFF401B6428F5D9E1
:1017080003208AE1904B5B6813F4800FD8D08E4B8E
:101718001B6813F4003F03D06368002B00F07A8144
:10172800236813F0020F55D0874B9B6813F00C0FFA
:101738003ED0854B9B6803F00C03082B33D0E3683D
:10174800002B68D0814B01221A60FEF703FF054683
:101758007D4B1B6813F0020F54D1FEF7FBFE401BB4
:101768000228F5D9032058E1774A136843F48033F7
:101778001360B5E7744B1A6842F480221A601A683D
:1017880042F480321A60ABE7FEF7E4FE05466E4B82
:101798001B6813F4003FC3D0FEF7DCFE401B64282F
:1017A800F5D9032039E1684B5B6813F4800FC6D183
:1017B800654B1B6813F0020F04D0E368012B01D0BE
:1017C80001202AE1604A136823F0F803216943EAFB
:1017D800C1031360236813F0080F40D0636963B333
:1017E8005B4B01221A60FEF7B5FE0546564B5B6F50
:1017F80013F0020F33D1FEF7ADFE401B0228F5D9D6
:1018080003200AE1504A136823F0F803216943EAE8
:10181800C1031360DEE74D4B00221A60FEF79AFE03
:101828000546494B1B6813F0020FD3D0FEF792FE12
:10183800401B0228F5D90320EFE0454B00221A602F
:10184800FEF788FE0546404B5B6F13F0020F06D08B
:10185800FEF780FE401B0228F5D90320DDE023684F
:1018680013F0040F79D0384B1B6C13F0805F33D121
:1018780000230193344B1A6C42F080521A641B6C9B
:1018880003F080530193019B0125324B1B6813F42D
:10189800807F23D0A368012B34D0052B38D02A4B66
:1018A8001A6F22F001021A671A6F22F004021A67EF
:1018B800A368002B36D0FEF74DFE0646224B1B6F61
:1018C80013F0020F48D1FEF745FE801B41F2883322
:1018D8009842F3D90320A0E00025D6E71D4A1368F3
:1018E80043F480731360FEF735FE0646194B1B68F8
:1018F80013F4807FCED1FEF72DFE801B0228F5D988
:1019080003208AE0104A136F43F001031367CFE7FF
:101918000D4B1A6F42F004021A671A6F42F0010267
:101928001A67C5E7FEF716FE0646074B1B6F13F04E
:10193800020F11D0FEF70EFE801B41F28833984249
:10194800F3D9032069E000BF003802400000474295
:10195800800E474200700040E5B9A369002B5BD0B8
:10196800304A926802F00C02082A58D0022B17D08D
:101978002D4B00221A60FEF7EDFD0446294B1B682B
:1019880013F0007F42D0FEF7E5FD001B0228F5D9D1
:10199800032042E0234A136C23F080531364DCE7EE
:1019A800214B00221A60FEF7D5FD05461D4B1B682A
:1019B80013F0007F06D0FEF7CDFD401B0228F5D9B5
:1019C80003202AE0E369226A1343626A43EA821326
:1019D800A26A5208013A43EA0243E26A43EA02630E
:1019E800104A5360104B01221A60FEF7B3FD0446FB
:1019F8000C4B1B6813F0007F06D1FEF7ABFD001BF4
:101A08000228F5D9032008E0002006E0002004E0C1
:101A180001207047012000E0002002B070BD0120C5
:101A2800FBE700BF0038024060004742324B9B682A
:101A380003F00C03042B5CD0082B01D02F4870470F
:101A48002DE9F04B2C4B5A6802F03F025B6813F407
:101A5800800F2BD0284B5B68C3F388131E460027E2
:101A68005C010025E41A65EB0705A90141EA9461C8
:101A7800A001001B61EB0501CB0043EA5073C400D1
:101A8800A01943EB07014B0243EAD0534402204616
:101A980019460023FEF794FB174B5B68C3F3014319
:101AA80001335B00B0FBF3F0BDE8F08B124B5B68D1
:101AB800C3F388131E4600275C010025E41A65EB72
:101AC8000705A90141EA9461A001001B61EB05012A
:101AD800CB0043EA5073C400A01943EB07018B0203
:101AE80043EA90538402204619460023FEF768FB18
:101AF800D2E70348704700BF003802400024F400D2
:101B080000127A00002800F09D8070B504464F4B03
:101B18001B6803F00F038B4209D2CBB24B4A1370F8
:101B2800136803F00F038B4201D0012070BD2368B6
:101B380013F0020F17D013F0040F04D0444A93682F
:101B480043F4E0539360236813F0080F04D0404A2D
:101B5800936843F4604393603D4A936823F0F0032D
:101B6800A068034393600D46236813F0010F32D039
:101B78006368012B21D09A1E012A25D9344A12689C
:101B880012F0020F60D032498A6822F00302134330
:101B98008B60FEF7DFFC06462D4B9B6803F00C03B9
:101BA8006268B3EB820F16D0FEF7D4FC801B41F2BB
:101BB80088339842F0D90320B8E7254A126812F40E
:101BC800003FE0D10120B1E7214A126812F0007FFE
:101BD800D9D10120AAE71D4B1B6803F00F03AB42C4
:101BE80009D9EAB2194B1A701B6803F00F03AB420C
:101BF80001D001209AE7236813F0040F06D0144A95
:101C0800936823F4E053E1680B439360236813F06F
:101C1800080F07D00E4A936823F46043216943EA0A
:101C2800C1039360FFF702FF094B9B68C3F30313DB
:101C3800084AD35CD840084B18600020FEF740FCE7
:101C4800002073E70120704701206FE7003C024045
:101C5800003802405C42000818010020014B186857
:101C6800704700BF1801002070B4036A23F0010315
:101C78000362036A4268846924F073040D6845EAC4
:101C8800040623F002048B6823430C4DA84202D0BB
:101C98000B4CA0420BD123F00803CD682B4323F053
:101CA800040322F440724D6915438A692A4342604D
:101CB80086614A684263036270BC70470000014055
:101CC8000004014030B4036A23F480730362036A9A
:101CD8004268C46924F073040D682C4323F400732C
:101CE8008D6843EA05230E4DA84203D005F58065AB
:101CF800A8420ED123F40063CD6843EA052323F4F8
:101D0800806322F440524D6942EA05128D6942EA25
:101D180005124260C4614A68C263036230BC7047FE
:101D28000000014030B4036A23F480530362036A5D
:101D38004468C26922F4E6420D6842EA052223F4A7
:101D480000538D6843EA0533094DA84203D005F5D1
:101D58008065A84204D124F480444D6944EA85147E
:101D68004460C2614A680264036230BC704700BFC5
:101D780000000140704710B5846B012384F83930A6
:101D8800236A83420BD0636A834210D0A36A8342DA
:101D980010D0E36A834204D10823237601E00123AB
:101DA80023762046FFF7E6FF0023237610BD0223A3
:101DB8002376F6E704232376F3E7704708B5806BAC
:101DC800012380F83930FFF7F8FF08BD03682E4A71
:101DD800904212D0B0F1804F0FD0A2F57C429042D1
:101DE8000BD002F58062904207D002F580629042E3
:101DF80003D002F57842904203D123F070034A6879
:101E08001343214A90422AD0B0F1804F27D0A2F53F
:101E18007C42904223D002F5806290421FD002F5A6
:101E2800806290421BD002F57842904217D002F5AA
:101E38007052904213D002F5806290420FD002F5A2
:101E4800806290420BD0A2F59832904207D002F5FA
:101E58008062904203D002F58062904203D123F45D
:101E68004073CA68134303608B68C3620B6883625C
:101E7800054B984203D003F58063984201D10B6962
:101E8800036301234361704700000140A8B110B506
:101E9800044690F839305BB1022384F83930211DAB
:101EA8002068FFF793FF012384F83930002010BD24
:101EB80080F8383001F096FDEEE701207047000009
:101EC80030B4036A23F010030362036A446882692A
:101ED80022F4E6420D6842EA052223F020038D68C9
:101EE80043EA05130E4DA84203D005F58065A842C4
:101EF8000ED123F08003CD6843EA051323F0400395
:101F080024F440644D6944EA85048D6944EA8504F3
:101F1800446082614A688263036230BC704700BFD4
:101F28000000014038B590F83830012B66D00D46D6
:101F38000446012380F83830022380F839300C2A0F
:101F48001AD8DFE802F007191919201919193419D4
:101F5800191947000068FFF787FE2268936943F064
:101F6800080393612268936923F00403936122684C
:101F7800936929690B439361012384F83930002060
:101F880084F8380038BD0068FFF79AFF2268936923
:101F980043F4006393612268936923F48063936137
:101FA80022689369296943EA01239361E4E7006899
:101FB800FFF788FE2268D36943F00803D3612268DB
:101FC800D36923F00403D3612268D36929690B43D9
:101FD800D361D1E70068FFF7A5FE2268D36943F40F
:101FE8000063D3612268D36923F48063D3612268D4
:101FF800D369296943EA0123D361BDE70220C1E718
:1020080010B4012303FA01F4036A23EA0403036208
:10201800036A8A40134303625DF8044B704700006B
:1020280070B590F83960F6B2022E7AD090F839403F
:10203800E4B2012C0DD016460D4604460C2922D8D0
:10204800DFE801F010212121392121214B21212113
:102058005D001AB1022480F83940ECE7002BF9D072
:10206800012027E0026A3049D163026A2F49D1640E
:10207800026834323146006AFEF7E6FB2268D3680C
:1020880043F40073D360012229462068FFF7B8FFA4
:102098002368274A934203D002F58062934203D112
:1020A8005A6C42F400425A642268136843F00103F0
:1020B8001360002070BD426A1B49D163426A1B4904
:1020C800D164026838323146406AFEF7BDFB2268A7
:1020D800D36843F48063D360D5E7826A1249D16339
:1020E800826A1249D16402683C323146806AFEF73E
:1020F800ABFB2268D36843F40063D360C3E7C26ACA
:102108000949D163C26A0949D1640268403231463B
:10211800C06AFEF799FB2268D36843F48053D36002
:10212800B1E70220C6E700BF7F1D0008C51D0008F3
:102138000000014090F83830012B22D030B4012241
:1021480080F83820022380F839300468636823F067
:1021580070036360046863680D682B4363600468F8
:10216800A36823F08003A3600468A36849680B434D
:10217800A36080F83920002380F83830184630BC36
:1021880070470220704784B010B5044603A880E861
:102198000E00089B012B20D1A36B23F48033A3638B
:1021A800E36823F4840323F04003E360E36823F443
:1021B8004013E3600F9B012B0AD0204600F006FD78
:1021C800069B012B14D00020BDE8104004B07047D6
:1021D800E36843F48013E360EFE7E36843F0400308
:1021E800E360204600F0F2FC4FF48033A363E7E796
:1021F800A36843F00603A360A36843F02003A36029
:10220800E1E7836843F00103836000207047836837
:1022180023F0010383600020704708B5C36823F0EA
:10222800C043C360012909D019B9C36843F080438A
:10223800C3603220FEF794F9002008BDC36843F05C
:102248000053C360F5E7000084B0F8B5044607A85A
:1022580080E80E00119FBFB9A36B43F40013A3637A
:1022680025460023C4F8003E04F50066D4F800387B
:10227800C4F800380C9B012B10D1099B4BB90021E5
:10228800204600F0AFF80DE0A36B43F40023A363EE
:10229800E6E70121204600F0A5F803E003212046E7
:1022A80000F0A0F81021204600F076F8204600F053
:1022B80087F80023336173614FF0FF32B261F36135
:1022C80008E04FF09040C2F8000900220A61FF229E
:1022D8008A600133079999420BD905EB431202F53D
:1022E8001061D2F800090028EBDB0020C2F80009D1
:1022F800EBE7002308E04FF0904CC2F800CB002237
:102308000261FF228260013399420DD905EB431225
:1023180002F53060D2F800CBBCF1000FEBDB4FF0D8
:10232800000CC2F800CBEAE7336923F48073336109
:102338000A9B012B1AD00022A2616FF080426261D1
:102348001BB9A36943F01003A361A269104B13439F
:10235800A3610D9B1BB1A36943F00803A361012F7F
:102368000ED00020BDE8F84004B07047094A326337
:10237800326B42F4803242F003023263326BDAE7A6
:10238800A36943F0804343F00403A361E9E700BF76
:1023980000383C8000018000890141F02001016182
:1023A80000230133054A934205D8026912F0200F31
:1023B800F7D1002070470320704700BF400D03008D
:1023C8001023036100230133054A934205D80269AB
:1023D80012F0100FF7D1002070470320704700BF9C
:1023E800400D0300D0F800381943C0F80018002049
:1023F8007047D0F8083800F5006013F0060F10D0C9
:10240800836803F00603022B0DD0836803F00603EC
:10241800062B0AD0836803F00603042B07D000209C
:102428007047002070470320704703207047022040
:10243800704730B44B78012B22D0D0F81C380D7877
:102448000122AA4043EA0243C0F81C380B7800EB8B
:102458004310D0F8003B13F4004F0ED1D0F8003BE6
:102468008A68C2F30A02C97842EA8142134343F0F8
:10247800805343F40043C0F8003B002030BC704751
:10248800D0F81C280D78AB409BB21343C0F81C3819
:102498000C7800EB4410D0F8003913F4004FECD15D
:1024A800D0F800398A68C2F30A02C97842EA814240
:1024B80042EA8452134343F0805343F40043C0F884
:1024C8000039DAE738B54B78012B36D00B7804465B
:1024D80000EB4313D3F8002B22F40042C3F8002B7F
:1024E8000B7800EB43134FF00062C3F8002B0B7816
:1024F80000EB43134FF08042C3F8002B0022013257
:102508002B4B9A4252D80B7804EB431303F53063F4
:102518009B6813F0100FF2D1D0F8043843F48063AD
:10252800C0F80438D0F81C38097801228A4023EA18
:102538000243C0F81C38002038BD0B78044600EB75
:102548004313D3F8002922F40042C3F800290B787A
:1025580000EB43134FF00062C3F800290B7800EB3F
:1025680043134FF08042C3F8002900220132104B78
:102578009A4219D80B7804EB431303F510639B6850
:1025880013F0804FF2D10D4604461021FFF704FFE7
:10259800D4F81C28297801238B409BB222EA030334
:1025A800C4F81C380020C7E70320C5E70320C3E7A9
:1025B800400D030070B582B04B78012B3ED00B78EC
:1025C80000EB4313D3F8104BE40CE404C3F8104BAE
:1025D8000B7800EB4313D3F8104B24F0FF5424F48A
:1025E800C014C3F8104B4B69002B40F0D4800B7813
:1025F80000EB4313D3F8104B8D68C5F312052C4339
:10260800C3F8104B0B7800EB4313D3F8104B44F48A
:102618000024C3F8104B012A00F0DC80CB78012B92
:1026280000F0DF800B7800EB4310D0F8003B43F05C
:102638000443C0F8003B002002B070BD4B696BBB7F
:102648000B7800EB4313D3F8104924F0FF5424F41B
:10265800C014C3F810490B7800EB4313D3F81049A2
:1026680044F40024C3F810490B7800EB4313D3F863
:102678001049E40CE404C3F81049012A54D0CB787B
:10268800012B57D04B69002B54D0D0F834380E7832
:102698000124B4402343C0F834384BE00B7800EBF6
:1026A8004313D3F81049E40CE404C3F810490B7839
:1026B80000EB4313D3F8104924F0FF5424F4C0145A
:1026C800C3F810490C7800EB4414D4F810594B693E
:1026D8008E683344013BB3FBF6F34E4E06EAC34320
:1026E8002B43C4F810390B7800EB4313D3F8104987
:1026F8004D69C5F312052C43C3F81049CB78012B5B
:10270800BBD10B7800EB4313D3F8104924F0C04435
:10271800C3F810490B7800EB4313D3F8104944F081
:102728000054C3F81049A8E70B7800EB43130C6971
:10273800C3F81449CB78012B14D00B7800EB431362
:10274800D3F8004944F00444C3F80049CB78012B7E
:102758007FF471AF14468B8A0A78C968009400F038
:102768000BF968E7D0F8083813F4807F09D10B78A3
:1027780000EB4313D3F8004944F00054C3F8004970
:10278800DBE70B7800EB4313D3F8004944F080549F
:10279800C3F80049D1E78C682344013BB3FBF4F349
:1027A8000C7800EB4414D4F8105B1A4E06EAC346C2
:1027B8003543C4F8105B0C7800EB4414D4F8106B64
:1027C8008D689BB205FB03F5C5F312053543C4F8C4
:1027D800105B20E7CA680B7800EB4313C3F8142B8F
:1027E8001CE7D0F8083813F4807F09D10B7800EB88
:1027F8004313D3F8002B42F00052C3F8002B11E723
:102808000B7800EB4313D3F8002B42F08052C3F847
:10281800002B07E70000F81F30B44B78012B39D0A4
:102828000B7800EB4313D3F8104BE40CE404C3F823
:10283800104B0B7800EB4313D3F8104B24F0FF54E4
:1028480024F4C014C3F8104B4B690BB18B684B616F
:102858000B7800EB4313D3F8104B44F40024C3F86F
:10286800104B0B7800EB4313D3F8104B8D68C5F36E
:1028780012052C43C3F8104B012A76D00B7800EBD5
:102888004310D0F8003B43F00443C0F8003B00205D
:1028980030BC70474B699BBB0B7800EB4313D3F8F4
:1028A800104924F0FF5424F4C014C3F810490B78DD
:1028B80000EB4313D3F8104944F40024C3F810493B
:1028C8000B7800EB4313D3F81049E40CE404C3F885
:1028D80010490B7800EB4313D3F8004944F0044443
:1028E800C3F80049012A39D04B69002BCFD0D0F862
:1028F8003438097801228A401343C0F83438C6E7CF
:102908000B7800EB4313D3F81049E40CE404C3F844
:1029180010490B7800EB4313D3F8104924F0FF5407
:1029280024F4C014C3F810494C698B689C4200D940
:102938004B610B7800EB4313D3F8104944F400249F
:10294800C3F810490B7800EB4313D3F810494D69CD
:10295800C5F312052C43C3F81049BAE70B7800EB0E
:1029680043100B69C0F8143991E7CA680B7800EB7B
:102978004313C3F8142B81E770B49DF80C4064B975
:1029880003339D0807E000EB023303F5805351F849
:10299800046B1E600134AC42F5D3002070BC704754
:1029A80003329208002393420CD210B400F58054ED
:1029B800246841F8044B01339342F7D308465DF885
:1029C800044B7047084670474B78012B17D00B789B
:1029D80000EB4313D3F8002B002A05DBD3F8002BB8
:1029E80022F08042C3F8002B0B7800EB4310D0F89C
:1029F800003B43F40013C0F8003B002070470B78FD
:102A080000EB4313D3F80029002A05DBD3F800298B
:102A180022F08042C3F800290B7800EB4310D0F86D
:102A2800003943F40013C0F80039E6E74B78012B6E
:102A38000FD00B7800EB4313D3F8002B22F40012CD
:102A4800C3F8002BCB78023BDBB2012B19D900204D
:102A580070470B7800EB4313D3F8002922F40012D7
:102A6800C3F80029CB78023BDBB2012BEFD80B78F7
:102A780000EB4310D0F8003943F08053C0F8003918
:102A8800E5E70B7800EB4310D0F8003B43F08053A8
:102A9800C0F8003BDBE7D0F8003823F4FE63C0F849
:102AA8000038D0F80038090101F4FE610B43C0F882
:102AB80000380020704708B5D0F8043823F0020326
:102AC800C0F804380320FDF74BFD002008BD08B509
:102AD800D0F8043843F00203C0F804380320FDF7A7
:102AE8003FFD002008BD4269806910407047D0F85A
:102AF800183800F50060C0691840000C7047D0F81D
:102B0800183800F50060C069184080B2704700EBC3
:102B18004111D1F8082B00F500604069104070475A
:102B280010B4D0F81048D0F83438CB40DB01DBB211
:102B3800234300EB411000F51060806818405DF8F1
:102B4800044B7047406900F001007047D0F8003925
:102B580023F4FF6323F00703C0F8003900F500638E
:102B68009A6802F00602042A05D05A6842F4807274
:102B78005A6000207047D0F8002942F00302C0F8DC
:102B88000029F2E710B40024C0F8104BD0F8104B1D
:102B980044F40024C0F8104BD0F8104B44F018044B
:102BA800C0F8104BD0F8104B44F0C044C0F8104B9C
:102BB800012903D000205DF8044B7047C0F8142B9E
:102BC8004FF08023C0F8003BF4E7000000230133F6
:102BD8000C4A934211D80269002AF8DA036943F0D3
:102BE8000103036100230133064A934207D80269AF
:102BF80012F0010FF7D1002070470320704703201F
:102C0800704700BF400D0300D0F818321BB10020F8
:102C1800C3F8140270470220704710B5D0F8184264
:102C2800D0F81C325BB194F80002FF2807D09B68EB
:102C380094F8012221469847FF2384F800320020A7
:102C480010BD00004323038000487047080000209F
:102C580043230380004870474C000020432303802F
:102C680000487047900000200A23038000487047FE
:102C7800D400002038B50446D0F8185201F012F9F3
:102C8800C5F80C02D4F818324BB1D4F81C32DB6802
:102C980005F50371D5F804029847002038BD0220D5
:102CA800FCE7000070B505460C46D0F818620B78B2
:102CB80013F0600225D0202A07D1CA883AB9D0F883
:102CC8001C329B68002248789847002070BD13F09A
:102CD800800F0BD0D0F81C329B683146607898473B
:102CE800E2883146284600F06BFCEEE74B7886F820
:102CF8000032CB8886F80132CA88314600F075FC6C
:102D0800E3E74B780A2BE0D10122024900F058FC96
:102D1800DBE700BF4C03002010B50446812101F019
:102D280056F80121204601F052F88221204601F090
:102D38004EF8D4F8183253B1D4F81C325B6898476F
:102D4800D4F8180201F07AF90023C4F818320020E8
:102D580010BD38B50446037C73BB4FF400730222E0
:102D6800812101F023F84FF400730222012120464B
:102D780001F01CF8082303228221204601F016F8EE
:102D88004FF4077001F052F90546C4F8180248B329
:102D9800D4F81C321B6898470023C5F81432C5F8CC
:102DA8001832237CA3B14023D5F804220121204600
:102DB80001F06AF8002038BD40230222812100F08A
:102DC800F5FF402302220121204600F0EFFFD1E762
:102DD8004FF40073D5F804220121204601F054F87D
:102DE8000020E8E70120E6E719B1C0F81C1200202E
:102DF800704702207047D0F81832C3F80812C3F899
:102E0800102200207047D0F81832C3F804120020AE
:102E18007047D0F818229AB108B5037C3BB140231B
:102E2800D2F80422012101F02FF8002008BD4FF448
:102E38000073D2F80422012101F026F80020F5E7FA
:102E48000220704798B108B50346D0F8140210B1B3
:102E58000020C3F8140209B1C3F810121846012360
:102E680080F8FC31027000F059FF002008BD0220F4
:102E7800704719B1C0F8141200207047022070473B
:102E880008B500F085FF002008BD08B5D0F8143259
:102E980033B11B68984708B9002008BD0220FCE739
:102EA8000220FAE708B5D0F814325B68984700208A
:102EB80008BD38B5044600F50275284600F01DF92E
:102EC8000123C4F8F431B4F80E32C4F8F83194F898
:102ED800081201F01F03012B0ED03BB1022B10D0BA
:102EE80001F08001204600F080FF03E029462046DB
:102EF80000F07DFA002038BD2946204600F09BFAF4
:102F0800F8E72946204600F0B2FAF3E710B5044680
:102F180021BB1346D0F8F421032A01D0002010BDAC
:102F2800D0F80C11D0F8102191420CD8D0F81432F6
:102F38001B6923B190F8FC21032A00D19847204649
:102F480000F06AFBEAE7891AC0F80C118A4228BF28
:102F58000A4692B2194600F057FBDFE70A46D0F856
:102F680014329B69002BD9D090F8FC110329D5D1D4
:102F780011469847D2E710B50446002946D11346B2
:102F8800D0F8F421022A05D094F80032012B39D068
:102F9800002010BDC169026A914219D88169B1FB4C
:102FA800F2F302FB13132BB98A4203D8D0F8F83195
:102FB80099421AD3D4F81432DB682BB194F8FC2167
:102FC800032A01D120469847204600F030FBDBE772
:102FD8008A1AC26192B2194600F0FFFA00231A4613
:102FE8001946204600F050FFCEE70022114600F0B7
:102FF800F4FA0021C4F8F8110B460A46204600F0FE
:1030080043FFC1E7002384F80032C1E70A46D0F83D
:1030180014325B69002BBBD090F8FC110329B7D19F
:1030280011469847B4E738B50446402300221146B4
:1030380000F0BCFE4025C4F810512B460022802128
:10304800204600F0B3FE2562012384F8FC31D4F851
:1030580018322BB1D4F814325B682179204698478E
:10306800002038BD01740020704790F8FC3180F8CA
:10307800FD31042380F8FC310020704790F8FD31C1
:1030880080F8FC310020704708B590F8FC31032B1C
:1030980001D0002008BDD0F81432DB69002BF8D02D
:1030A8009847F6E7002070470020704700207047D7
:1030B80008B5012280F8FC21D0F814225268017961
:1030C8009047002008BD002302E00133DBB2013045
:1030D8000278002AF9D1184670474B88012B0BD18A
:1030E80010B50446C0F80432D0F814329B689847EB
:1030F800204600F091FA10BD70470B7803704B78AA
:1031080043708B78CA7803EB022343800B794A79A2
:1031180003EB022383808B79CA7903EB0223C380F4
:10312800704710B50446802100F05FFE002120465C
:1031380000F05BFE10BD30B583B004460D464A88EA
:10314800130A013B062B00F28180DFE803F0041329
:10315800277F7F637000D0F810321B680DF10601DD
:10316800007C9847BDF8062012B1EB88002B71D17E
:1031780003B030BD037C43B9D0F814329B6A0DF11B
:103188000600984702234370ECE7D0F81432DB6A54
:103198000DF10600984702234370E3E7D2B2052AEF
:1031A80034D8DFE802F0030B131B232BD0F81032BE
:1031B8005B680DF10601007C9847D3E7D0F8103220
:1031C8009B680DF10601007C9847CBE7D0F81032D8
:1031D800DB680DF10601007C9847C3E7D0F8103290
:1031E8001B690DF10601007C9847BBE7D0F8103247
:1031F8005B690DF10601007C9847B3E7D0F81032FF
:103208009B690DF10601007C9847ABE72946FFF75B
:1032180088FFADE7037C33B9D0F814325B6B0DF14E
:10322800060098479EE72946FFF77BFFA0E7037C47
:1032380043B9D0F814321B6B0DF1060098470723E9
:1032480043708FE72946FFF76CFF91E72946FFF7A0
:1032580068FF8DE79A4228BF1A46ADF80620014656
:10326800204600F0ADF983E738B504468B88E3B90A
:10327800CB88D3B98D7805F07F0590F8FC31032B06
:103288000CD080F8FE51294600F0E2FD204600F0FF
:10329800C3F935B1022384F8FC3109E0FFF741FF97
:1032A80006E0012384F8FC3102E02046FFF739FFED
:1032B80038BD000038B504460D468978254B19708D
:1032C800012909D890F8FC31022B09D0032B1CD016
:1032D8002946FFF726FF02E02946FFF722FF38BDFF
:1032E80081B14160032380F8FC31FFF7CEFD02284D
:1032F80003D0204600F090F9F1E729462046FFF771
:1033080010FFECE700F088F9E9E789B143689942D2
:103318001DD0D9B2FFF7C6FD0E4B19786160204663
:10332800FFF7B3FD02280DD0204600F075F9D6E767
:10333800022380F8FC314160FFF7B4FD204600F01D
:103348006BF9CCE729462046FFF7EBFEC7E700F00C
:1033580063F9C4E74D03002008B5CB88012B08D1D9
:1033680090F8FC31022B07D0032B0DD0FFF7D9FEC4
:1033780001E0FFF7D6FE08BD0146002341F8083FEB
:10338800012200F01DF9F6E70122011D00F018F9ED
:10339800F1E708B590F8FC31023B012B0CD801236A
:1033A800C360D0F804320BB10323C360022200F1DA
:1033B8000C0100F005F908BDFFF7B3FEFBE710B5F7
:1033C800044690F8FC31023B012B0DD84B88012BA9
:1033D80009D10023C0F80432D0F814329B6898470A
:1033E800204600F019F910BDFFF79BFEFBE708B572
:1033F8004B78092B1CD8DFE803F012181B151B09A2
:10340800051B0F0CFFF797FE002008BDFFF72CFFE8
:10341800FAE7FFF74FFFF7E7FFF79EFFF4E7FFF73D
:10342800B8FFF1E7FFF759FEEEE7FFF7C8FFEBE754
:10343800FFF777FEE8E738B504460D4690F8FC310B
:10344800032B11D10B79012B0BD8D0F814329B68C0
:103458009847EB880BB1002038BD204600F0DCF817
:10346800F9E7FFF75EFEF6E7FFF75BFEF3E738B52F
:1034780005460C468A880B7803F06003202B05D19B
:10348800D0F814329B689847002038BDD1B26378D1
:10349800012B25D0002B47D0032BF5D190F8FC3118
:1034A800022B05D0032B0AD02146FFF73AFEEBE7A3
:1034B8000029E9D08029E7D000F097FCE4E7638889
:1034C80023B919B1802901D000F08FFCD5F8143246
:1034D8009B68214628469847284600F09DF8D3E780
:1034E80090F8FC31022B05D0032B0AD02146FFF7B8
:1034F80018FEC9E70029C7D08029C5D000F075FC9F
:10350800C2E76388002BBFD111F07F0F03D1284693
:1035180000F082F8B8E700F076FCD5F814329B6822
:10352800214628469847F2E790F8FC31022B05D04F
:10353800032B09D02146FFF7F4FDA5E711F07F0F13
:10354800A2D000F052FC9FE712F0800F11D101F0D9
:103558007F04103400EB04140434284600F061FCA6
:1035680070B10123236002222146284600F028F882
:103578008AE701F07F04013400EB04140434ECE71B
:1035880000232360EFE7D0B170B50D461646044618
:10359800FFF799FD0130400080B230802870032386
:1035A8006B70022307E001345A1CD2B2E95402338B
:1035B800DBB20021A95421780029F4D170BD7047ED
:1035C80010B513460222C0F8F4218361C3610A468C
:1035D800002100F04BFC002010BD08B513460A4638
:1035E800002100F043FC002008BD10B5134603225B
:1035F800C0F8F421C0F80831C0F80C310A4600219F
:1036080000F042FC002010BD08B513460A46002110
:1036180000F03AFC002008BD08B50423C0F8F431D6
:1036280000231A46194600F021FC002008BD08B501
:103638000523C0F8F43100231A46194600F024FC8B
:10364800002008BD00B583B000210191094B1A6B19
:1036580042F400121A631B6B03F400130193019BDD
:103668000A460B20FCF7A2FF0B20FCF7D3FF03B0A0
:103678005DF804FB0038024030B589B0002400949E
:10368800194B1A6B42F080021A631A6B02F080021F
:103698000092009A01941A6B42F008021A631A6B9E
:1036A80002F008020192019A02941A6B42F0010298
:1036B8001A631B6B03F001030293029B0B4D01225B
:1036C8004FF480412846FDF7CBFA4FF4804303932B
:1036D8000123049305940223069303A92846FDF7C2
:1036E800DBF909B030BD00BF00380240000C0240D1
:1036F800F8B500252E462C4611E000F089FC154B44
:103708001B5D1844427812F0040F1BD005EB8502AC
:1037180055001D44ADB2303DADB20134A4B240F203
:10372800FB639C4215D8B6F5C87F12DA094B1B5DBE
:103738004C2B0ED0202BE0D1074B23F81650013626
:103748000025EAE701224FF480410448FDF788FA92
:10375800E3E7F8BDA409002080060020000C024021
:10376800FEE7000000B595B0002101912B4B1A6CC3
:1037780042F080521A641B6C03F080530193019B42
:103788000291274B1A6842F480421A601B6803F4BE
:1037980080430293029B012308934FF480330993DB
:1037A80002230E934FF480020F92082210924FF4D6
:1037B800A872119212930723139308A8FDF76AFFC2
:1037C80020BB0F23039302230493002305934FF494
:1037D800A05306934FF480530793052103A8FEF7DF
:1037E80091F9B8B9FEF73AFA0E4BA3FB00308009FD
:1037F800FCF71CFF0420FCF72FFF002211464FF0B6
:10380800FF30FCF7D3FE15B05DF804FBBB2106487A
:10381800FFF7A6FFC9210448FFF7A2FF00380240BE
:1038280000700040D34D62107442000810B50023A8
:1038380004E01F4A0021D15401339BB240F2FB62DD
:103848009342F6D9FCF760FEFFF78CFFFFF714FFF1
:10385800FFF7F8FE00F026F900F064F90021154B97
:1038680019604FF4C873144A1448FEF7D9FB0124B1
:103878000CE000224FF480411148FDF7F1F90024D3
:103888000B4B93F8FB360BB1FFF732FF002CFDD042
:103898000C4B1B78002BF3D006490A68501C0860B3
:1038A80003498B544C2BE4D0064B00221A70E7E7EF
:1038B800A4090020A009002080060020A0100020F4
:1038C800000C02406013002010B582B00024009460
:1038D800214B5A6C42F480425A645A6C02F480427A
:1038E8000092009A01941A6C42F080521A641B6C80
:1038F80003F080530193019B0320FCF745FE224609
:1039080021466FF00B00FCF751FE224621466FF06E
:103918000A00FCF74BFE224621466FF00900FCF72F
:1039280045FE224621466FF00400FCF73FFE224682
:1039380021466FF00300FCF739FE224621466FF05E
:103948000100FCF733FE224621464FF0FF30FCF71A
:103958002DFE02B010BD00BF003802407047FEE7E0
:10396800FEE7FEE7FEE770477047704708B5FCF7CB
:10397800E5FDFCF782FE08BD08B50248FCF79EFF8E
:1039880008BD00BFDC10002008B50248FDF74AFA60
:1039980008BD00BF602300200F49D1F8883043F4E8
:1039A8007003C1F888300D4B1A6842F001021A60A2
:1039B800002098601A6822F0847222F480321A601B
:1039C800074A5A601A6822F480221A60D8604FF0B9
:1039D80000638B60704700BF00ED00E000380240D4
:1039E8001030002402681C4B9A4200D0704710B572
:1039F80082B0044600230193184A116C41F0040177
:103A08001164126C02F004020192019A1448154ADA
:103A180002604FF08062426040228260C3604FF4CF
:103A2800806202614FF4006242614FF40052826189
:103A38004FF48072C2614FF4003202624362FCF7B5
:103A48009DFE20B9064B23629C6302B010BD7B210A
:103A58000548FFF785FEF5E70008004000380240FA
:103A6800DC100020106002408442000802680B4B02
:103A78009A4200D0704700B587B04FF48053019345
:103A880002230293002203920493059301A9044898
:103A9800FDF702F807B05DF804FB00BF000800401E
:103AA800000C024000B58BB01B481C4B036001237F
:103AB80043600023836040F63402C2600361FEF76E
:103AC800E5F9D0B900230893099308A91248FEF72D
:103AD80031FBB8B96023019340F634030293002206
:103AE8000392059201A90C48FEF71CFA78B90A4816
:103AF800FFF7BCFF0BB05DF804FB4B210848FFF74C
:103B08002FFEDFE752210648FFF72AFEE2E75B2196
:103B18000348FFF725FEEAE7A01000200008004050
:103B28008442000810B5094C002209492046FFF7D5
:103B380089F908492046FFF79CF907492046FFF70D
:103B480053F92046FFF79CF910BD00BF3C11002037
:103B580044010020E00000201C01002000207047E4
:103B68000020704710B5064C002206492046FFF792
:103B780042F905492046FFF746F9002010BD00BF6D
:103B88003C110020601B00206013002008B50A6863
:103B98000146024800F06CFA08BD00BF601300201F
:103BA80070B504460E46074D01462846FFF72BF927
:103BB8002846FFF72EF931462046FFF7E7FF002099
:103BC80070BD00BF3C1100200368B3F1A04F00D0C6
:103BD800704730B587B04FF4007301930024029406
:103BE8000394164D01A92846FCF756FF4FF4C0531D
:103BF8000193022302930394032304930A23059356
:103C080001A92846FCF748FF0D4B5A6B42F0800289
:103C18005A6300945A6C42F480425A645B6C03F411
:103C280080430093009B224621464320FCF7BEFCBC
:103C38004320FCF7EFFC07B030BD00BF0000024096
:103C48000038024008B500F56F71D0F8EC03FFF7B3
:103C580030F908BD08B5C1EBC10293000344D3F89D
:103C68000422D0F8EC03FFF751F908BD08B5C1EB01
:103C7800C102930003445A6CD0F8EC03FFF77BF9B8
:103C880008BD08B5D0F8EC03FFF7FEF908BD10B57C
:103C98000446C3684BB10121D4F8EC03FFF7E2F9FD
:103CA800D4F8EC03FFF7BFF910BD0021F4E70000DA
:103CB80010B50446D0F8EC03FFF7D7F92268D2F81C
:103CC800003E43F00103C2F8003E236A23B1034AD1
:103CD800136943F00603136110BD00BF00ED00E057
:103CE80008B5D0F8EC03FFF7C9F908BD08B5D0F856
:103CF800EC03FFF7D9F908BD08B5D0F8EC03FFF7D6
:103D0800D1F908BD08B5D0F8EC03FFF7CFF908BD25
:103D180008B5D0F8EC03FFF7CBF908BD03780BB171
:103D28000020704710B503461748C0F8EC33C3F8B5
:103D380020024FF0A0430360042343600222C260C4
:103D48000023036143618261C3610362436201220C
:103D5800C2620363FCF7E0FF80B90B4C8021204668
:103D6800FDF794FC402200212046FDF76BFC8022E1
:103D780001212046FDF766FC002010BD40F25111DC
:103D88000248FFF7EDFCE8E76023002094420008B2
:103D980008B5D0F82002FDF72FF818B1022803D093
:103DA800022008BD0020FCE70120FAE710B51C46F8
:103DB80013462246D0F82002FDF728FB18B1022846
:103DC80003D0022010BD0020FCE70120FAE708B567
:103DD800D0F82002FDF74EFB18B1022803D00220CC
:103DE80008BD0020FCE70120FAE708B5D0F820025A
:103DF800FDF7CAFB18B1022803D0022008BD002035
:103E0800FCE70120FAE708B5D0F82002FDF7EFFB40
:103E180018B1022803D0022008BD0020FCE70120C9
:103E2800FAE7D0F8203211F0800F08D101F07F01B5
:103E3800C1EBC1018A00134493F8FA01704701F0FD
:103E48007F01C1EBC1018A00134493F83A0070471F
:103E580008B5D0F82002FDF7C7FA18B1022803D038
:103E6800022008BD0020FCE70120FAE708B5D0F8D9
:103E78002002FDF760FB18B1022803D0022008BD1C
:103E88000020FCE70120FAE708B5D0F82002FDF78A
:103E98001CFB18B1022803D0022008BD0020FCE753
:103EA8000120FAE708B5D0F82002FDF73BFB08BD72
:103EB80012230B80004870472C01002004230B803C
:103EC800004870474001002008B50A4628B1054956
:103ED8000548FFF758FB034808BD02490248FFF7A9
:103EE80052FBF8E750270020A842000810B5044C00
:103EF8000A4621460348FFF746FB204610BD00BF8F
:103F080050270020C042000808B50A4628B10549D4
:103F18000548FFF738FB034808BD02490248FFF788
:103F280032FBF8E750270020D442000808B50A46BB
:103F380028B105490548FFF726FB034808BD024993
:103F48000248FFF720FBF8E750270020E44200086A
:103F580008B50A4628B105490548FFF714FB034888
:103F680008BD02490248FFF70EFBF8E7502700207A
:103F7800F0420008DFF834D0002103E00C4B5B5816
:103F8800435004310B480C4B42189A42F6D30B4A63
:103F980002E0002342F8043B094B9A42F9D3FFF7A9
:103FA800FBFC00F011F8FFF741FC7047000002200D
:103FB8001C440008000000203003002030030020CB
:103FC80054290020FEE7000070B50D4E0D4CA41BCF
:103FD800A4100025A54209D10B4E0C4C00F02AF97B
:103FE800A41BA4100025A54205D170BD56F82530A4
:103FF80098470135EEE756F8253098470135F2E73E
:104008001444000814440008144400081844000824
:10401800044B054A1B681B6A002B08BF1346D3F8DC
:10402800EC00704760010020C4010020024B0146EB
:10403800186800F077B800BF60010020024B014605
:10404800186800F021B800BF6001002082B001B9F3
:1040580001A942B14BB113780B601278101C18BF3C
:10406800012002B070471046FBE76FF00100F8E747
:1040780010B5431E0A44914200D110BD11F8014BFE
:1040880003F8014FF7E7000038B50546002945D089
:1040980051F8043C0C1F002BB8BFE41800F0B9F825
:1040A8001F4A1368104633B9636014602846BDE898
:1040B800384000F0AFB8A3420CD921686218934287
:1040C80004BF1A685B68636004BF5218226004600A
:1040D800ECE713465A680AB1A242FAD91968581887
:1040E800A0420BD120680144581882421960DDD1E2
:1040F800106852685A6001441960D7E702D90C2346
:104108002B60D3E7206821188A4204BF11685268DF
:10411800626004BF091821605C60C7E738BD00BF52
:104128005003002070B5CD1C25F0030508350C2D73
:1041380038BF0C25002D064601DBA94203D90C2304
:104148003360002070BD00F064F8214A14682146ED
:1041580091B9204C23681BB9304600F03DF8206027
:104168002946304600F038F8431C24D10C2333602C
:10417800304600F04FF8E4E70B685B1B18D40B2BB4
:104188000FD90B60CD50CC18304600F043F804F13D
:104198000B00231D20F00700C31AD3D05A42E25067
:1041A800D0E78C424B6816BF636013600C46EBE7A0
:1041B8000C464968CCE7C41C24F00304A04205D08F
:1041C800211A304600F008F80130CFD02560DBE72F
:1041D800500300205403002038B5064C0023054640
:1041E8000846236000F018F8431C02D1236803B185
:1041F8002B6038BD5029002049B1FF2A85BF8A238A
:1042080003600A704FF0FF3098BF012070470846DE
:104218007047704770470000044A05491368002B2F
:1042280008BF0B4618441060184670475803002012
:1042380058290020F8B500BFF8BC08BC9E46704756
:0C424800F8B500BFF8BC08BC9E467047EB
:104254000006101600061016000000000000000002
:104264000102030406070809000000000102030418
:104274002E2E2F5372632F6D61696E2E6300000022
:104284002E2E2F5372632F74696D2E63000000006D
:104294002E2E2F5372632F757362645F636F6E6685
:1042A4002E63000053544D33322056697274756185
:1042B4006C20436F6D506F727400000053544D694D
:1042C40063726F656C656374726F6E69637300000B
:1042D4003030303030303030303031410000000088
:1042E40043444320436F6E666967000043444320A0
:1042F400496E746572666163650000004300504F47
:10430400534958002E000020202020202020202067
:104314002828282828202020202020202020202071
:1043240020202020202020881010101010101010A1
:1043340010101010101010040404040404040404E5
:10434400041010101010101041414141414101016D
:104354000101010101010101010101010101010149
:104364000101101010101010424242424242020257
:104374000202020202020202020202020202020219
:1043840002021010101020000000000000000000C5
:104394000000000000000000000000000000000019
:1043A4000000000000000000000000000000000009
:1043B40000000000000000000000000000000000F9
:1043C40000000000000000000000000000000000E9
:1043D40000000000000000000000000000000000D9
:1043E40000000000000000000000000000000000C9
:1043F40000000000000000000000000000000000B9
:084404000000000000000000B0
:08440C00ECBDFF7F0100000080
:04441400AD010008EE
:04441800890100080E
:10441C00010000001000000009024300020100C06E
:10442C0032090400000102020100052400100105FC
:10443C002401000104240202052406000107058260
:10444C000308001009040100020A0000000705011E
:10445C0002400000070581024000000009024300F1
:10446C00020100C03209040000010202010005240F
:10447C000010010524010001042402020524060099
:10448C00010705820308001009040100020A00005C
:10449C00000705010200020007058102000200006E
:1044AC0009074300020104C03209040000010202A2
:1044BC00010005240010010524010001042402025E
:1044CC000524060001070582030800FF090401000A
:1044DC00020A0000000705010240000007058102E6
:1044EC00400000000A06000200000040010000002D
:1044FC005B2D0008212D0008AD2C000800000000E9
:10450C00232C0008112C00087D2C00080000000052
:10451C000000000000000000592C00084D2C000881
:10452C00652C0008712C00080024F4006D3B000879
:10453C00653B0008693B0008A93B0008120100021A
:10454C0002020040830440570002010203010000F4
:10455C0004030904B93E0008C53E0008F53E0008F6
:10456C00D13E0008113F0008353F0008593F0008B4
:10457C0064010020000000000000000000000000AA
:10458C00000000000000000000000000000000001F
:10459C00000000000000000000000000000000000F
:1045AC0000000000000000000000000000000000FF
:1045BC0000000000000000000000000000000000EF
:1045CC0000000000000000000000000000000000DF
:1045DC00000000004300000000000000000000008C
:1045EC0000000000000000000000000000000000BF
:1045FC00000000004300000000000000000000006C
:10460C00000000000000000000000000000000009E
:10461C00000000004300000000000000000000004B
:10462C00000000000000000000000000000000007E
:10463C00000000004300000000000000000000002B
:10464C00000000000000000000000000000000005E
:10465C00000000004300000000000000000000000B
:10466C00000000000000000000000000000000003E
:10467C0000000000430000000000000000000000EB
:10468C00000000000000000000000000000000001E
:10469C0000000000430000000000000000000000CB
:1046AC0000000000000000000000000000000000FE
:1046BC000000000001420008554000080000000006
:1046CC000A4300080843000809430008094300088E
:1046DC00094300080943000809430008094300087E
:1046EC00094300080943000809430008FFFFFFFFC6
:1046FC00FFFFFFFFFFFFFFFFFFFF00000100415323
:10470C0043494900000000000000000000000000C8
:10471C0000000000000000000000000000004153F9
:10472C0043494900000000000000000000000000A8
:10473C00000000000000000000000000000000006D
:0400000508003F7D33
:00000001FF
